:020000040800F2
:10000000B80600204D0200082B120008231100083A
:10001000291200084304000827140008000000000B
:100020000000000000000000000000002F12000887
:1000300045040008000000002D12000831120008DD
:1000400067020008670200086702000867020008EC
:1000500067020008670200086702000867020008DC
:1000600067020008670200086702000867020008CC
:1000700067020008670200086702000867020008BC
:1000800067020008670200086702000867020008AC
:10009000670200086702000867020008670200089C
:1000A000670200086702000867020008670200088C
:1000B00067020008E91200086702000867020008EA
:1000C000670200086702000867020008670200086C
:1000D000670200086702000867020008670200085C
:1000E000470400086702000867020008670200086A
:1000F000670200086702000867020008670200083C
:10010000670200086702000867020008670200082B
:10011000670200086702000867020008670200081B
:10012000670200086702000867020008670200080B
:1001300067020008670200086702000867020008FB
:1001400067020008670200086702000867020008EB
:1001500067020008670200086702000867020008DB
:1001600067020008670200086702000867020008CB
:10017000670200086702000867020008000000002C
:1001800067020008670200086702000867020008AB
:10019000670200086702000867020008670200089B
:1001A00067020008670200086702000800F002F812
:1001B00000F03CF80AA090E8000C82448344AAF1C5
:1001C0000107DA4501D100F031F8AFF2090EBAE8C3
:1001D0000F0013F0010F18BFFB1A43F0010318477B
:1001E000A0120000C0120000103A24BF78C878C1E5
:1001F000FAD8520724BF30C830C144BF04680C602D
:10020000704700000023002400250026103A28BF74
:1002100078C1FBD8520728BF30C148BF0B60704778
:100220001FB501F01FF91FBD10B510BD00F0CFF8CC
:100230001146FFF7F5FF01F007F900F0EDF803B400
:10024000FFF7F2FF03BC00F0F5F800000948804713
:1002500009480047FEE7FEE7FEE7FEE7FEE7FEE7A8
:10026000FEE7FEE7FEE7FEE704480549054A064BC0
:1002700070470000CD120008AD010008B800002052
:10028000B8060020B8020020B802002053EA020C91
:1002900000F069802DE9F04B4FF00006002B1FBFE6
:1002A000B3FA83F503FA05F424FA05F65E4012BFAB
:1002B0001643B2FA82F502FA05F4C5F120051EBF15
:1002C00022FA05FC44EA0C04203556EA044C4FEAB5
:1002D000144418BF641C4FF000084FF0000990420E
:1002E00071EB030C39D3002919BFB1FA81F701FA78
:1002F00007F6B0FA80F700FA07F6C7F120071EBF2D
:1003000020FA07FC46EA0C062037B6FBF4FCA7EB04
:100310000507103F07F01F0BCBF120060CFA0BFB73
:100320002CFA06F644BFB3460026202FA4BF5E4633
:100330004FF0000B5BEA060C08BF4FF0010B19EB06
:100340000B09ABFB027C48EB0608C01B06FB02CC8A
:100350000BFB03CC71EB0C01C1E70B460246414697
:100360004846BDE8F08B13B54FF000004FF0000198
:10037000AFF30080BDE81C4070474FF0000200B5AD
:10038000134694469646203922BFA0E80C50A0E8B8
:100390000C50B1F12001BFF4F7AF090728BFA0E866
:1003A0000C5048BF0CC05DF804EB890028BF40F832
:1003B000042B08BF704748BF20F8022B11F0804F74
:1003C00018BF00F8012B704770477047704775469B
:1003D00000F02CF8AE4605006946534620F00700B1
:1003E000854618B020B5FFF73FFFBDE820404FF02D
:1003F00000064FF000074FF000084FF0000B21F00F
:100400000701AC46ACE8C009ACE8C009ACE8C009DB
:10041000ACE8C0098D46704710B50446AFF30080C4
:100420002046BDE81040FFF70ABF000000487047B3
:100430005800002001491820ABBEFEE7260002004C
:100440007047FEE770474FF4005000F03FB80000DF
:1004500070B51C4D1C4C286878B1012819D00228B1
:10046000204623D000F0EDFC216845F20720886289
:10047000204600F0D5FC002016E0134800F0E1FC17
:10048000216841F2BF2088620F4800F0C9FC0120BA
:100490000AE00D4800F0D5FC216842F2273088625E
:1004A000094800F0BDFC0220286070BD00F0C9FCC6
:1004B000216842F6F7208862034800F0B1FC03206F
:1004C000F2E700000000002018000020044910B5E9
:1004D0000A68024202D00860FFF7BAFF10BD0000B0
:1004E000143C01402DE9F84F00224FF0010803258C
:1004F0004FF00F0E0B6808FA02F42340A3426ED1AE
:100500004E68012E05D0022E03D0112E01D0122EDE
:1005100012D186684FEA420C05FA0CF7BE43CF6849
:1005200007FA0CF7374387604668A6430C79C4F393
:100530000014944034434460C668570005FA07FC31
:100540008C6826EA0C06BC403443C4604C68022C1C
:1005500001D0122C13D1D40800EB8404A346D4F8A4
:10056000209054074FEAD46A0EFA0AF629EA0609DF
:100570000E6906FA0AF646EA0906CBF82060046816
:100580000E7924EA0C0406F00306BE4026430660FA
:100590004C68E4006FD53B4C266846F480462660E4
:1005A000246822F0030604F480440094364C34445A
:1005B000A446D4F808489607360F0EFA06F7BC434F
:1005C000324FB84201D100272EE0314FB84201D15D
:1005D000012729E02F4FB84202D1022724E04AE048
:1005E0002D4FB84201D103271EE02C4FB84201D154
:1005F000042719E02A4FB84201D1052714E0294FFA
:10060000B84201D106270FE0274FB84201D1072792
:100610000AE0264FB84201D1082705E0244FB8422E
:1006200001D1092700E00A27B7402743CCF8087812
:10063000204E34684F689C43FF0300D51C43346050
:100640001C4E361D34684F689C43BF0300D51C43C5
:100650003460184E083634684F689C43FF0200D55A
:100660001C433460134E0C3634684F689C43BF0201
:1006700000D51C433460521C102AFFF43BAFBDE888
:10068000F88F000044380240003001400000024072
:100690000004024000080240000C0240001002402A
:1006A0000014024000180240001C024000200240DA
:1006B00000240240003C01400AB1816170470904F6
:1006C000FBE7000001488068704700000800002038
:1006D0000248816802781144816070470800002058
:1006E000094810B5016841F400710160016841F4E6
:1006F00080610160032000F06FF80F2000F006F821
:1007000000F024F8002010BD003C024070B50D4DF3
:1007100004464FF47A712878B1FBF0F00A49096871
:10072000B1FBF0F000F0E4FA48B9102C07D2002237
:100730002146501E00F030F800206C6070BD012092
:1007400070BD000008000020140000200A4808B511
:10075000016841F480410160006800F4804000902D
:100760000548001F016841F080510160006800F0F9
:100770008050009008BD000044380240002809DB8A
:1007800000F01F02012191404009800000F1E020AB
:10079000C0F8001170470000F0B40E4B1B680C4607
:1007A000C3F30223C3F10705042D00D90425191D45
:1007B000072901D2002300E0DB1E012606FA05F11D
:1007C000491E214099409E40761E16403143F0BCA0
:1007D00000F02ABE0CED00E0064900F007020868B0
:1007E0004FF6FF03184040EA0220034A1043086016
:1007F000704700000CED00E00000FA052DE9F0471D
:100800000E46050065D0DFF81481D8F80000F7B275
:1008100000F00F00B04207D288F80070D8F800004E
:1008200000F00F00B04254D128683D4C810712D52A
:10083000400703D5206840F4E05020602878000786
:1008400003D5206840F4604020602068A96820F04B
:10085000F000084320602878C0072DD03049686830
:100860000839012812D0022813D0032811D00968B2
:10087000890700292DDA216821F003010143216055
:10088000FFF720FF814641F2883A0EE009688903AC
:10089000EFE709688901ECE7FFF714FFA0EB090116
:1008A000514502D90320BDE8F0872068696800F04F
:1008B0000C00B0EB810FEFD1D8F80010404601F0EA
:1008C0000F01B14207D90770006800F00F00B04275
:1008D00001D00120E7E72878400705D52068E968BE
:1008E00020F4E050084320602878000706D52068EF
:1008F000296920F4604040EAC100206000F018F847
:100900002168084AC1F30311515CC84006490860D8
:1009100006480068FFF7FAFE0020C4E7003C0240EA
:10092000083802406E140008140000200C0000205B
:10093000154810B5006810F00C02144813D0144983
:10094000042A0FD0082A0ED10F4C241F22682368D6
:1009500002F03F025B0207D52068C0F38810A0FBBD
:10096000010106E0084610BD2168C1F38811A1FB12
:1009700000010023FFF78AFC2168C1F30141491CF3
:100980004900B0FBF1F010BD083802400024F4002B
:1009900040787D012DE9F84F04006ED02078DFF813
:1009A0003C93C007A9F104054AD009F1040001688D
:1009B000C1F38101012908D00068C0F38100022839
:1009C0000AD1D9F80000400206D52868800337D53F
:1009D00060680028E1D033E06068B0F5803F10D057
:1009E000B0F5A02F286810D020F480302860286847
:1009F00020F4802028606068A8B1FFF763FE0646F7
:100A00000DE0286840F48030F4E740F4802028604E
:100A1000F7E700BFFFF756FE801B642873D82868ED
:100A20008003F7D50CE0FFF74DFE064605E000BF5A
:100A3000FFF748FE801B6428F0D828688003F7D4AD
:100A40002078DFF89C8280074FF0000A3ED5A3484B
:100A5000001D016811F00C0F08D00068C0F3810080
:100A600002280BD1D9F80000400207D4286880077B
:100A700016D5E068012800D112E02BE1E068B8B19A
:100A80000120C8F80000FFF71DFE064605E000BF84
:100A9000FFF718FE801B0228C0D828688007F7D50A
:100AA0002868216920F0F80040EAC10028600DE0C4
:100AB000C8F800A0FFF706FE064604E0FFF702FEB6
:100AC000801B02281FD828688007F7D420780007E9
:100AD00022D5824E83486169703671B1012101606F
:100AE000FFF7F0FD074604E0FFF7ECFDC01B02280E
:100AF00009D830688007F7D50EE0C0F800A0FFF7EE
:100B0000E1FD074605E082E0FFF7DCFDC01B02289F
:100B10007DD830688007F7D42078400768D5DFF8A3
:100B2000BCB100270BF13C0BDBF80000C0000BD47C
:100B3000DBF8001041F08051CBF80010DBF800002A
:100B4000012700F080500090674E3068C00510D437
:100B5000306840F480703060FFF7B4FD009005E02D
:100B6000FFF7B0FD0099401A022850D83068C00540
:100B7000F6D55A4EA0686C3601280FD0052830688B
:100B800010D020F001003060306820F004003060A8
:100B9000A068B8B1FFF796FD00900FE0306840F014
:100BA0000100F4E740F004003060F7E7FFF78AFD4A
:100BB0000099411A41F28830814266D83068800736
:100BC000F4D50EE0FFF77EFD009007E0FFF77AFD19
:100BD0000099411A41F28830814256D83068800726
:100BE000F4D42FB1DBF8001021F08051CBF80010C5
:100BF000A069C8B33949091D0968C1F381010229F7
:100C00004AD00228504607D0C8F8600000E03CE017
:100C1000FFF758FD04463BE04746C8F86000FFF781
:100C200051FD064605E000BFFFF74CFD801B022882
:100C30002BD828688001F7D4D4E907010843A16ABA
:100C40002A4A490802EB0141626A41EA82110843DB
:100C500094F82C1040EA0161C9F8001001203866B0
:100C6000FFF730FD044606E036E000BFFFF72AFD3F
:100C7000001B022809D828688001F7D52CE000BFA6
:100C8000FFF720FD001B022802D90320BDE8F88FE2
:100C900028688001F4D41FE00128F7D0D9F80000BB
:100CA000E26900F48001914214D1226A00F03F0110
:100CB00091420FD147F6C071626A0140914209D159
:100CC000A26A00F44031914204D1E16A00F0706000
:100CD000884201D00120D9E70020D7E7043802403C
:100CE00000004742800E4742007000400000FFFFB6
:100CF00010B5401EB0F1807F01D3012010BD4FF030
:100D0000E02460610F21601700F08EFB0020A061DD
:100D100007202061002010BD7047704770B590F823
:100D20003C20012A32D0012480F83C40022280F885
:100D30003D2003685A689D6822F070060A683243B5
:100D40005A60134B02689A4214D0B2F1804F11D00E
:100D5000104B9A420ED0104B9A420BD00F4B9A4236
:100D600008D00F4B9A4205D00E4B9A4202D00E4B40
:100D70009A4204D1496825F080031943916080F8B4
:100D80003D40002180F83C10084670BD022070BD37
:100D9000000001400004004000080040000C00403A
:100DA00000040140004001400018004010B504005C
:100DB00003D094F83D0010B107E0012010BD0020E1
:100DC00084F83C00204600F00DF8022084F83D0035
:100DD000211D206800F08EFA012084F83D000020DB
:100DE00010BD000008B500680B49884212D10B48BD
:100DF000016841F0020101600068002200F0020079
:100E0000009011461D20FFF7C7FCBDE808401D20DB
:100E1000FFF7B4BC08BD00000004004040380240A9
:100E20000168CA6842F00102CA600068816801F086
:100E30000701062903D0016841F00101016000208B
:100E400070470168CA6822F00102CA600068016A3E
:100E500041F21112114207D1016A9210114203D1DD
:100E6000016821F0010101600020704770B504465F
:100E700090F83C00012817D0012584F83C5002204E
:100E800084F83D002068826822F0770222F47F42D5
:100E900082600868502830D00DDC20284DD005DC59
:100EA00098B310283BD148E0022070BD302844D0D0
:100EB000402834D139E0602828D0702806D0B0F519
:100EC000805F2CD0B0F5005F29D10AE0CB68D1E972
:100ED0000121206800F072FA2068816841F07701F2
:100EE00009E0CB68D1E90121206800F067FA2068A9
:100EF000816841F48041816011E0CA6849682068D6
:100F000000F06EFA5021206807E016E0CA684968D0
:100F1000206800F076FA6021206800F059FA84F821
:100F20003D50002084F83C0070BDCA6849682068C4
:100F300000F056FA40212068EFE72268014610468B
:100F4000EBE7704770B50446006801694FF0000593
:100F5000C943890715D4C168C943890711D4E91E5B
:100F6000016101202077206880698007204602D037
:100F7000FFF7E7FF04E000F098F8204600F096F84D
:100F8000257720680169C943490717D4C168C94357
:100F9000490713D46FF00401016102202077206813
:100FA000806910F4407F204602D0FFF7CAFF04E0BA
:100FB00000F07BF8204600F079F825772068016979
:100FC000C943090716D4C168C943090712D46FF091
:100FD00008010161042020772068C069800720464D
:100FE00002D0FFF7AEFF04E000F05FF8204600F00B
:100FF0005DF8257720680169C943C90617D4C1681F
:10100000C943C90613D46FF010010161082020778D
:101010002068C06910F4407F204602D0FFF791FF9E
:1010200004E000F042F8204600F040F82577206800
:101030000169C943C90708D1C168C943C90704D1B7
:10104000891E0161204600F033F820680169C94318
:10105000090609D4C168C943090605D46FF08001A7
:1010600001612046FFF758FE20680169C94349061F
:1010700009D4C168C943490605D46FF04001016134
:10108000204600F04DF820680169C94389060BD459
:10109000C168C943890607D46FF020010161204669
:1010A000BDE87040FFF739BE70BD70477047000063
:1010B00070B51849884214D1174D184C686888B12A
:1010C0004FF4804601284FF0000217D031462046E9
:1010D000FFF7F2FA012211462046FFF7EDFA002051
:1010E000686070BD012280212046FFF7E5FA0022EA
:1010F00001212046FFF7E0FA0120F1E78021204698
:10110000FFF7DAFA012231462046FFF7D5FA02202E
:10111000E6E7000018000020000000200004024064
:101120007047FEE770B586B014216846FFF725F9D1
:101130001F480024016841F004010160016801F0CA
:1011400004010591016841F080010160016801F02E
:1011500080010591016841F0020101600068154EAF
:1011600000F0020044F28105059000222946304635
:10117000FFF7A2FA4FF4005000900F48CDE90104A8
:1011800069460E48FFF7AEF901200095CDE901044C
:10119000694630460394FFF7A5F90022114628203E
:1011A000FFF7FAFA2820FFF7E9FA06B070BD000051
:1011B00030380240000402400000111000080240D4
:1011C00010B586B00024174800940194029403944B
:1011D000049413490594016041F2BF21C0E9011450
:1011E00040F2CF71C0E903148461FFF7DFFD08B15D
:1011F00072B6FEE74FF48050009069460948FFF749
:1012000035FE08B172B6FEE7049404A905480594BA
:10121000FFF784FD002801D072B6FEE706B010BDCE
:101220000004004018000020FEE7FEE7704770470A
:10123000FFF74EBA30B593B030216846FFF79DF8FE
:1012400014210CA8FFF799F81E480025016841F009
:1012500080510160006800F0805011901A480168C8
:1012600041F4404101600068022400F440401190C4
:1012700001200090000401908001CDE90640192072
:1012800008904FF4A870CDE9090404200B9068463B
:10129000FFF780FB08B172B6FEE70CA90F2081E8CA
:1012A00031004FF4A0500F904FF480501090052162
:1012B0000CA8FFF7A3FA002801D072B6FEE713B01E
:1012C00030BD000040380240007000400548016811
:1012D00041F47001016003494FF0006080390860FB
:1012E0007047000088ED00E00148FFF72BBE0000CA
:1012F00018000020F0B50268254C264D264E274FD9
:10130000274B4FF0804CA04209D0604507D0A8423F
:1013100005D0B04203D0B84201D0984204D122F0A7
:10132000700E4A6842EA0E02A0421BD0604519D0F6
:10133000A84217D0B04215D0B84213D0984211D06D
:10134000184DA8420ED0184DA8420BD0174DA842F8
:1013500008D0174DA84205D0164DA84202D0164D10
:10136000A84203D122F44075CA682A434D6922F08D
:1013700080022A4302608A68C2620A688262A042CE
:1013800001D0984201D10969016301214161F0BD99
:10139000000001400004004000080040000C004034
:1013A0000004014000400140004401400048014069
:1013B00000180040001C00400020004010B5846868
:1013C00042EA032224F47F440A432243826010BD90
:1013D000826822F070020A4342F007018160704780
:1013E00010B5036A046A24F001040462846924F0DD
:1013F000F00444EA021423F00A020A438461026200
:1014000010BD10B5036A23F0100303628369046AF8
:1014100023F4704343EA023224F0A00343EA0111AB
:101420008261016210BDFEE70907090E002804DB96
:1014300000F1E02080F80014704700F00F0000F188
:10144000E02080F8141D7047FFF74AF9FFF7F2FE1D
:10145000FFF768FEFFF7B4FE0148FFF7E1FCFEE787
:10146000180000204FF04070E1EE100A70470000B5
:101470000000000000000102030406070809000044
:10148000A01400080000002018000000E801000877
:10149000B814000818000020A0060000040200088C
:1014A000000000000000000001000000100000002B
:0814B000000000000024F4001C
:04000005080001AD41
:00000001FF
